:020000040800F2
:1000000000000220593400086533000867330008F7
:10001000693300086B3300086D33000800000000EE
:10002000000000000000000000000000316D00082A
:100030006F33000800000000C16D00087133000834
:10004000A9340008A9340008A9340008A93400081C
:10005000A9340008A9340008A9340008A93400080C
:10006000A9340008A9340008A9340008A9340008FC
:10007000A9340008A9340008A9340008A9340008EC
:10008000A9340008A9340008A9340008A9340008DC
:10009000A9340008A9340008A9340008A9340008CC
:1000A000A9340008A9340008A9340008A9340008BC
:1000B000A9340008A9340008A9340008A9340008AC
:1000C000A9340008A9340008A9340008A93400089C
:1000D000A9340008A9340008A934000889330008AD
:1000E000A9340008A9340008A9340008A93400087C
:1000F000A9340008A9340008A9340008A93400086C
:10010000A9340008A9340008A9340008A93400085B
:10011000A9340008A9340008A9340008A93400084B
:10012000A9340008A9340008A9340008A93400083B
:10013000A9340008A9340008A9340008A93400082B
:10014000A9340008A9340008A9340008A93400081B
:10015000A9340008A9340008A9340008A93400080B
:10016000A9340008A9340008A9340008A9340008FB
:10017000A9340008A9340008A934000800000000D0
:08018000A9340008A9340008AD
:1001900010B5054C237833B9044B13B10448AFF3C1
:1001A00000800123237010BDF0010020000000003A
:1001B00010A4000808B5034B1BB103490348AFF373
:1001C000008008BD00000000F401002010A4000819
:1001D00010F8012B11F8013B012A28BF9A42F7D0F1
:1001E000D01A7047034613F8012B002AFBD1181AC6
:1001F000013870470000000000000000000000000F
:1002000001F0FF01102A2BDB10F0070F08D010F8C7
:10021000013B013A8B422DD010F0070F42B3F6D1CB
:10022000F0B441EA012141EA014122F007047FF0E4
:1002300000070023F0E80256083C85EA010586EA3B
:10024000010685FA47F5A3FA87F586FA47F6A5FA77
:1002500087F68EB9EED1F0BC01F0FF0102F0070283
:1002600032B110F8013B013A83EA010313B1F8D12E
:100270000020704701387047002D06BF354603380F
:10028000073815F0010F07D1013015F4807F02BF48
:10029000013015F4C03F0130F0BC0138704700BF99
:1002A00081F0004102E000BF83F0004330B54FEA27
:1002B00041044FEA430594EA050F08BF90EA020F94
:1002C0001FBF54EA000C55EA020C7FEA645C7FEA27
:1002D000655C00F0E2804FEA5454D4EB5555B8BF4A
:1002E0006D420CDD2C4480EA020281EA030382EABB
:1002F000000083EA010180EA020281EA0303362D4D
:1003000088BF30BD11F0004F4FEA01314FF4801C1F
:100310004CEA113102D0404261EB410113F0004F31
:100320004FEA03334CEA133302D0524263EB4303E8
:1003300094EA050F00F0A780A4F10104D5F1200E86
:100340000DDB02FA0EFC22FA05F2801841F10001E1
:1003500003FA0EF2801843FA05F359410EE0A5F1B5
:1003600020050EF1200E012A03FA0EFC28BF4CF0E6
:10037000020C43FA05F3C01851EBE37101F000459C
:1003800007D54FF0000EDCF1000C7EEB00006EEBA9
:100390000101B1F5801F1BD3B1F5001F0CD3490833
:1003A0005FEA30004FEA3C0C04F101044FEA44528A
:1003B00012F5800F80F09A80BCF1004F08BF5FEA11
:1003C000500C50F1000041EB045141EA050130BDF1
:1003D0005FEA4C0C404141EB0101013C28BFB1F503
:1003E000801FE9D291F0000F04BF01460020B1FA4E
:1003F00081F308BF2033A3F10B03B3F120020CDA21
:100400000C3208DD02F1140CC2F10C0201FA0CF0FE
:1004100021FA02F10CE002F11402D8BFC2F1200C63
:1004200001FA02F120FA0CFCDCBF41EA0C01904019
:10043000E41AA2BF01EB0451294330BD6FEA040462
:100440001F3C1CDA0C340EDC04F11404C4F120024D
:1004500020FA04F001FA02F340EA030021FA04F35F
:1004600045EA030130BDC4F10C04C4F1200220FAB6
:1004700002F001FA04F340EA0300294630BD21FAF4
:1004800004F0294630BD94F0000F83F4801306BFBA
:1004900081F480110134013D4EE77FEA645C18BFAE
:1004A0007FEA655C29D094EA050F08BF90EA020F45
:1004B00005D054EA000C04BF1946104630BD91EA3D
:1004C000030F1EBF0021002030BD5FEA545C05D140
:1004D0004000494128BF41F0004130BD14F580047F
:1004E0003CBF01F5801130BD01F0004545F0FE41F3
:1004F00041F470014FF0000030BD7FEA645C1ABF28
:10050000194610467FEA655C1CBF0B46024650EA5E
:10051000013406BF52EA033591EA030F41F400218A
:1005200030BD00BF90F0000F04BF0021704730B510
:100530004FF4806404F132044FF000054FF00001E5
:1005400050E700BF90F0000F04BF0021704730B5A6
:100550004FF4806404F1320410F0004548BF40427B
:100560004FF000013EE700BF42004FEAE2014FEAD0
:1005700031014FEA02701FBF12F07F4393F07F4FAB
:1005800081F06051704732F07F4208BF704793F0AE
:100590007F4F04BF41F40021704730B54FF46074C1
:1005A00001F0004521F000411CE700BF50EA0102C4
:1005B00008BF704730B54FF000050AE050EA01026D
:1005C00008BF704730B511F0004502D5404261EBDD
:1005D00041014FF4806404F132045FEA915C3FF41E
:1005E000D8AE4FF003025FEADC0C18BF03325FEABB
:1005F000DC0C18BF033202EBDC02C2F1200300FA6C
:1006000003FC20FA02F001FA03FE40EA0E0021FA90
:1006100002F11444BDE600BF70B54FF0FF0C4CF47E
:10062000E06C1CEA11541DBF1CEA135594EA0C0F30
:1006300095EA0C0F00F0DEF82C4481EA030621EA6B
:100640004C5123EA4C5350EA013518BF52EA0335A6
:1006500041F4801143F4801338D0A0FB02CE4FF058
:100660000005E1FB02E506F00042E0FB03E54FF088
:100670000006E1FB03569CF0000F18BF4EF0010E80
:10068000A4F1FF04B6F5007F64F5407404D25FEA7C
:100690004E0E6D4146EB060642EAC62141EA55512F
:1006A0004FEAC52040EA5E504FEACE2EB4F1FD0C71
:1006B00088BFBCF5E06F1ED8BEF1004F08BF5FEAEF
:1006C000500E50F1000041EB045170BD06F00046A1
:1006D00046EA010140EA020081EA0301B4EB5C044E
:1006E000C2BFD4EB0C0541EA045170BD41F4801146
:1006F0004FF0000E013C00F3AB8014F1360FDEBF6B
:10070000002001F0004170BDC4F10004203C35DA46
:100710000C341BDC04F11404C4F1200500FA05F3C9
:1007200020FA04F001FA05F240EA020001F000426A
:1007300021F0004110EBD37021FA04F642EB0601E0
:100740005EEA430E08BF20EAD37070BDC4F10C040A
:10075000C4F1200500FA04F320FA05F001FA04F2CE
:1007600040EA020001F0004110EBD37041F10001BA
:100770005EEA430E08BF20EAD37070BDC4F12005C5
:1007800000FA05F24EEA020E20FA04F301FA05F22D
:1007900043EA020321FA04F001F0004121FA04F2D5
:1007A00020EA020000EBD3705EEA430E08BF20EAA5
:1007B000D37070BD94F0000F0FD101F000464000DF
:1007C00041EB010111F4801F08BF013CF7D041EA61
:1007D000060195F0000F18BF704703F00046520065
:1007E00043EB030313F4801F08BF013DF7D043EA36
:1007F0000603704794EA0C0F0CEA135518BF95EAEC
:100800000C0F0CD050EA410618BF52EA4306D1D172
:1008100081EA030101F000414FF0000070BD50EA91
:10082000410606BF1046194652EA430619D094EA1B
:100830000C0F02D150EA013613D195EA0C0F05D105
:1008400052EA03361CBF104619460AD181EA030159
:1008500001F0004141F0FE4141F470014FF0000011
:1008600070BD41F0FE4141F4780170BD70B54FF0AC
:10087000FF0C4CF4E06C1CEA11541DBF1CEA13552C
:1008800094EA0C0F95EA0C0F00F0A7F8A4EB05040E
:1008900081EA030E52EA03354FEA013100F0888005
:1008A0004FEA03334FF0805545EA131343EA1263CE
:1008B0004FEA022245EA111545EA10654FEA002683
:1008C0000EF000419D4208BF964244F1FD0404F53C
:1008D000407402D25B084FEA3202B61A65EB030598
:1008E0005B084FEA32024FF480104FF4002CB6EB55
:1008F000020E75EB030E22BFB61A754640EA0C00D5
:100900005B084FEA3202B6EB020E75EB030E22BF14
:10091000B61A754640EA5C005B084FEA3202B6EB55
:10092000020E75EB030E22BFB61A754640EA9C0014
:100930005B084FEA3202B6EB020E75EB030E22BFE4
:10094000B61A754640EADC0055EA060E18D04FEAA2
:10095000051545EA16754FEA06164FEAC30343EA42
:1009600052734FEAC2025FEA1C1CC0D111F4801F0F
:100970000BD141EA00014FF000004FF0004CB6E708
:1009800011F4801F04BF01430020B4F1FD0C88BFA7
:10099000BCF5E06F3FF6AFAEB5EB030C04BFB6EBB2
:1009A000020C5FEA500C50F1000041EB045170BDA5
:1009B0000EF0004E4EEA113114EB5C04C2BFD4EBD2
:1009C0000C0541EA045170BD41F480114FF0000E56
:1009D000013C90E645EA060E8DE60CEA135594EAD2
:1009E0000C0F08BF95EA0C0F3FF43BAF94EA0C0FD5
:1009F0000AD150EA01347FF434AF95EA0C0F7FF44A
:100A000025AF104619462CE795EA0C0F06D152EA9D
:100A100003353FF4FDAE1046194622E750EA410681
:100A200018BF52EA43067FF4C5AE50EA41047FF492
:100A30000DAF52EA43057FF4EBAE12E74FF0FF3CF7
:100A400006E000BF4FF0010C02E000BF4FF0010CC8
:100A50004DF804CD4FEA410C7FEA6C5C4FEA430C41
:100A600018BF7FEA6C5C1BD001B050EA410C0CBF90
:100A700052EA430C91EA030F02BF90EA020F0020F2
:100A8000704710F1000F91EA030F58BF994208BF59
:100A900090422CBFD8176FEAE37040F00100704716
:100AA0004FEA410C7FEA6C5C02D150EA013C07D16D
:100AB0004FEA430C7FEA6C5CD6D152EA033CD3D0B8
:100AC0005DF8040B704700BF8446104662468C46B2
:100AD0001946634600E000BF01B5FFF7B7FF0028E5
:100AE00048BF10F1000F01BD4DF808EDFFF7F4FF0E
:100AF0000CBF012000205DF808FB00BF4DF808ED99
:100B0000FFF7EAFF34BF012000205DF808FB00BFBB
:100B10004DF808EDFFF7E0FF94BF012000205DF8DD
:100B200008FB00BF4DF808EDFFF7CEFF94BF012092
:100B300000205DF808FB00BF4DF808EDFFF7C4FF8B
:100B400034BF012000205DF808FB00BF4FEA410CD4
:100B50007FEA6C5C02D150EA013C0AD14FEA430CB7
:100B60007FEA6C5C02D152EA033C02D14FF00000F4
:100B700070474FF0010070474FEA410212F5001232
:100B800015D211D56FF47873B3EB625212D94FEAD4
:100B9000C12343F0004343EA505311F0004F23FABE
:100BA00002F018BF404270474FF00000704750EA13
:100BB000013005D111F0004008BF6FF000407047D0
:100BC0004FF00000704700BF53B94AB9002908BF71
:100BD00000281CBF4FF0FF314FF0FF3000F074B918
:100BE000ADF1080C6DE904CE00F006F8DDF804E084
:100BF000DDE9022304B070472DE9F047089D044663
:100C00008E46002B4DD18A42944669D9B2FA82F2BF
:100C100052B101FA02F3C2F1200120FA01F10CFAFB
:100C200002FC41EA030E94404FEA1C48210CBEFB33
:100C3000F8F61FFA8CF708FB16E341EA034306FBBC
:100C400007F199420AD91CEB030306F1FF3080F04B
:100C50001F81994240F21C81023E63445B1AA4B298
:100C6000B3FBF8F008FB103344EA034400FB07F73A
:100C7000A7420AD91CEB040400F1FF3380F00A817B
:100C8000A74240F207816444023840EA0640E41B70
:100C900000261DB1D4400023C5E900433146BDE81C
:100CA000F0878B4209D9002D00F0EF800026C5E9BE
:100CB000000130463146BDE8F087B3FA83F6002ED6
:100CC0004AD18B4202D3824200F2F980841A61EB4E
:100CD000030301209E46002DE0D0C5E9004EDDE76C
:100CE00002B9FFDEB2FA82F2002A40F09280A1EB54
:100CF0000C014FEA1C471FFA8CFE0126200CB1FBA9
:100D0000F7F307FB131140EA01410EFB03F08842A1
:100D100008D91CEB010103F1FF3802D2884200F22E
:100D2000CB804346091AA4B2B1FBF7F007FB1011C0
:100D300044EA01440EFB00FEA64508D91CEB04045E
:100D400000F1FF3102D2A64500F2BB800846A4EBB9
:100D50000E0440EA03409CE7C6F12007B34022FAA4
:100D600007FC4CEA030C20FA07F401FA06F31C43D3
:100D7000F9404FEA1C4900FA06F3B1FBF9F8200CE0
:100D80001FFA8CFE09FB181140EA014108FB0EF026
:100D9000884202FA06F20BD91CEB010108F1FF3A76
:100DA00080F08880884240F28580A8F10208614482
:100DB000091AA4B2B1FBF9F009FB101144EA014190
:100DC00000FB0EFE8E4508D91CEB010100F1FF343B
:100DD0006CD28E456AD90238614440EA0840A0FBD3
:100DE0000294A1EB0E01A142C846A64656D353D0A9
:100DF0005DB1B3EB080261EB0E0101FA07F722FACD
:100E000006F3F1401F43C5E9007100263146BDE8F5
:100E1000F087C2F12003D8400CFA02FC21FA03F358
:100E2000914001434FEA1C471FFA8CFEB3FBF7F0D9
:100E300007FB10360B0C43EA064300FB0EF69E42FE
:100E400004FA02F408D91CEB030300F1FF382FD297
:100E50009E422DD9023863449B1B89B2B3FBF7F63F
:100E600007FB163341EA034106FB0EF38B4208D918
:100E70001CEB010106F1FF3816D28B4214D9023E59
:100E80006144C91A46EA004638E72E46284605E777
:100E90000646E3E61846F8E64B45A9D2B9EB020848
:100EA00064EB0C0E0138A3E74646EAE7204694E7D8
:100EB0004046D1E7D0467BE7023B614432E730460B
:100EC00009E76444023842E7704700BF08B50120D3
:100ED00004F0BBFCFBE7000008B5054C20464FF4CE
:100EE000806102F01AFE4FF47A7004F0AEFCF5E770
:100EF000001002402DE9F047274F284E284DDFF81B
:100F0000A4A0DFF8AC90DFF8AC803C21384603F0B9
:100F10007AFD3C21234803F076FD002333602B60EB
:100F20003B685B6A02F00CFB044602F009FB001B05
:100F30000928FAD93C68DAF80000626A416A2B682D
:100F4000B2F5FA4FC6BFC2F580324FF0010C4FF038
:100F5000FF3CB1F5FA4FC6BFC1F580315B1A5B1893
:100F60002B603368BCF1010F0CBF9B189B1A3360D8
:100F700000236362436202F0E3FA326849460446A2
:100F8000404607F061F92A680749084807F05CF90C
:100F900006F04CF9C9E700BF9C03002010050020B3
:100FA00014050020E403002090A400085002002053
:100FB00087A400083C02002010B5034C204603F033
:100FC000EBFC23685B6AFEE72C04002073B50C4E33
:100FD0000C4A0D4D10700C460A2331780093012302
:100FE0009940284602F04CFF3178142300932246A2
:100FF00002234900284603F01BF802B070BD00BF71
:1010000000000020210200200003002007B5074B4C
:10101000074A517019781070142300934900022375
:10102000044802F02DFF03B05DF804FB000000202F
:10103000210200200003002008B500210620FFF750
:10104000E5FF0A2004F001FC80210320FFF7DEFF0A
:101050000A2004F0FAFB07210846FFF7D7FF0A2011
:1010600004F0F3FB01210620FFF7D0FF0A2004F073
:10107000ECFB20217F20FFF7C9FF0A2004F0E5FBED
:101080002F210120FFF7C2FF0A2004F0DEFB002120
:101090000846FFF7BBFF0A2004F0D7FB00217F20A2
:1010A000FFF7B4FF0A2004F0D0FB07200021FFF770
:1010B000ADFFBDE808400A2004F0C7BB00000000F7
:1010C0002DE9F0478CB00023ADF80430FFF7B4FFF2
:1010D00002F036FA82460A2004F0B7FB0FF230190C
:1010E000D9E9008902F02CFA0A2004F0AEFB02F0E4
:1010F00027FAA0EB0A006328F6D901A93720FFF7E9
:1011000065FF012004F0A1FBBDF804003A4C3B4D03
:10111000C0BA0530FFF716FA0F46064602F010FA7D
:10112000A0EB0A00FFF7FEF931A3D3E90023FFF794
:101130009DFB32463B46FFF76FFA42464B46FFF7B0
:101140006BFAD4E90023FFF7B1F8C4E9000102F01B
:10115000F7F9A0EB0A00FFF7E5F925A3D3E900238F
:10116000FFF784FB32463B46FFF756FA42464B46B2
:10117000FFF752FAD5E90023FFF798F8D4E90067A2
:10118000C5E900011E4B002230463946FFF7CAFC74
:1011900018B300220023C4E90023D4E90001FFF7BB
:1011A000EBFC1849024602A807F04EF802AA1E21DD
:1011B0000A2006F0D7F8D5E90001FFF7DDFC124957
:1011C000024607A807F040F807AA14210A2006F0F3
:1011D000C9F802F0B5F9824686E70C4B002230468A
:1011E0003946FFF795FC0028D3D1D6E7AFF300804E
:1011F000000000000004D040080500206802002024
:101200000080864028A4000834A40008008086C01E
:10121000B81E85EB51B8F23F00B595B02C220021E5
:1012200009A806F078FA1422002103A806F073FA40
:101230000023194A0193116C41F080511164126C22
:1012400002F080520192019A144A0293116841F40B
:101250008041116012680E9302F480420292029A59
:101260000222089201201022CDE90B0208A803F007
:101270006BF8014608B172B6FEE70F23CDE90330E3
:10128000CDE90500079003A803F03CFA08B172B657
:10129000FEE715B05DF804FB003802400070004026
:1012A00080B59CB002F026F9FFF7B6FF14220021AA
:1012B00013A806F030FA0024AE4B01941A6BAE4826
:1012C00042F010021A631A6B02F010020192019AA6
:1012D00002941A6B42F004021A631A6B02F00402C1
:1012E0000292029A03941A6B42F001021A631A6B7B
:1012F00002F001020392039A04941A6B42F008026E
:101300001A631A6B02F008020492049A05941A6B8D
:1013100042F002021A631B6B03F00203059322469C
:1013200041F2E251059B02F0F3FB944822463C2136
:1013300002F0EEFB92482246202102F0E9FB224611
:1013400090484FF4805102F0E3FB012640F2E25353
:10135000894813A90225CDE91336CDE9154402F0D9
:10136000FDFA3C238548169513A9CDE913362027AD
:10137000159402F0F3FA824813A9CDE915454FF40C
:101380008059CDE9137602F0E9FA7B4813A9CDE93B
:101390001545CDE9139602F0E1FA4FF488134FF4A6
:1013A000006E7848159413A9CDE913E302F0D6FA3C
:1013B0007448754D13A9CDE91396CDE915444FF442
:1013C000005802F0CBFA6F48159413A9CDE91384A5
:1013D00002F0C4FA102221460DEB070006F09BF93B
:1013E0001C2221460CA8CDE9064406F094F93A46A1
:1013F000214613A806F08FF9644BAC60C5E90034B0
:10140000284641F61F43C5E90334C5E9054403F006
:10141000BBFB08B172B6FEE708A92846CDF82090BC
:1014200003F0FCFC08B172B6FEE7284603F0D8FBD7
:1014300008B172B6FEE7CDE9060006A9284603F01A
:1014400001FE024608B172B6FEE76023CDE90C301A
:10145000CDE90E00CDE9100012900CA9284603F04A
:1014600077FC08B172B6FEE704220CA9284603F007
:101470006FFC08B172B6FEE708220CA9284603F0FB
:1014800067FC08B172B6FEE7CDE91300CDE915009F
:10149000CDE917081A9013A9284603F011FE044657
:1014A00008B172B6FEE73A4D01463A4614A806F076
:1014B00032F94FF08043C5E900344FF6FF73C5E9B8
:1014C00003340323139313A90A232846CDE90C44BC
:1014D000AC60AC6115961793199603F0ADFB08B19B
:1014E00072B6FEE7CDE90C000CA9284603F0AAFD70
:1014F00008B172B6FEE700251022002108A806F008
:101500000AF91C2229460CA8CDE9065506F003F974
:101510002022294613A806F0FEF81E4CDFF878C0FA
:10152000A560A023C4E900C34FF47A73C4E903356E
:10153000204680236561A36103F026FB08B172B6E3
:10154000FEE74FF4805308A92046089303F066FC99
:1015500008B172B6FEE7204603F042FB08B172B64E
:10156000FEE7CDE9060006A9204603F06BFDA8B111
:1015700072B6FEE700380240001002400000024050
:1015800000080240000C02407404002000040140E6
:101590009C03002054030020000001406023CDE99B
:1015A0000C30CDE910000E9012900C220CA92046B0
:1015B00003F0CEFB08B172B6FEE7CDE91300CDE92A
:1015C000150017904FF400531A9013A92046189352
:1015D00003F076FD054608B172B6FEE7204601F03D
:1015E00057FE804F80484FF4E133C0E900730C236D
:1015F000C0E90255C0E905350561C56103F048FE43
:10160000044608B172B6FEE70146202214A806F08F
:1016100082F8764D764BAC60C5E900344FF6FF7327
:10162000C5E90334032313930A22012313A928468F
:10163000CDE90C44AC6115931792199303F0FCFAB1
:1016400008B172B6FEE7CDE90C000CA9284603F0FC
:10165000F9FC034608B172B6FEE76648664A674C75
:101660000362C0E900424FF48042C0E90233C0E99E
:101670000423C0E9063302F05BFB08B172B6FEE753
:101680001022002113A806F046F85D4C5D490F2298
:101690000023C4E9001220464FF6FF72CDE90C3357
:1016A000C4E90323A360A36103F06EFA08B172B624
:1016B000FEE74FF4805313A92046139303F0AEFBCB
:1016C00008B172B6FEE7CDE90C000CA9204603F084
:1016D000B9FC054608B172B6FEE74B4C4B4F0146CC
:1016E000102213A806F017F8494BA56001262046E2
:1016F000C4E900352561257684F82050E562A762AB
:10170000E560E66184F83050666101F033FF08B1AE
:1017100072B6FEE70A23159013A92046CDE91336C9
:1017200001F0CEFF054608B172B6FEE7394C01461E
:10173000102213A805F0EFFF374BA5602046C4E93F
:101740000035C4E90A752561257684F82050E560E6
:10175000E66184F83050666101F00CFF08B172B6A2
:10176000FEE7CDE91306159013A9204601F0A8FF66
:10177000044608B172B6FEE705F014FE27491A4880
:10178000042203F0D4FF03F0EBFF254A254821464D
:1017900004F012F8244B254A18602146244804F02E
:1017A0000BF8244B244A18602146244804F004F81E
:1017B000234B244A18602146234803F0FDFF234BA6
:1017C000234A18602146234803F0F6FF224B234AA0
:1017D00018602146224803F0EFFF224B186003F007
:1017E000D1FFFEE700480040BC040020E4030020D5
:1017F0000004004000030020A086010000540040C7
:101800002C04002000080040700200200100000F9E
:1018100000200140B802002000210140010000200A
:10182000C8A50008D90E00083802002080A50008CD
:10183000292A00081402002038A50008F50E000827
:101840000C020020ECA50008B90F000800050020DC
:101850005CA50008C110000810020020A4A5000823
:10186000CD0E00081802002002490348042203F0AC
:101870005EBF00BF01000020BC040020F8B50322B9
:10188000FF2307460C4623482349244E03F02EFD30
:101890000A210846224A05F065FD224B00251D60FD
:1018A000214B1D60214B00200021C3E90001204B8A
:1018B00020481B6897221A640421012202F028F9AB
:1018C0002A461C48082102F023F92A4619481A4DD5
:1018D000102102F01DF917480122202102F018F909
:1018E000002F01DD002C00DCF8BD2B68A7F5FA778E
:1018F000A4F5FA7427EAE77724EAE4745F63012029
:101900009C6303F0A2FF324632210A2005F02AFD33
:10191000E6E700BFBC04002099A400089DA40008CD
:1019200041A400081005002014050020080500202F
:1019300054030020000002407404002038B51C4904
:101940001C481D4DFF23032203F0D0FC0A2108464A
:101950001A4A05F007FD1A4B00241C60194B1C6045
:10196000194B00200021C3E90001184B18481B68DF
:1019700097221A640421012202F0CAF81448224670
:10198000082102F0C5F812482246102102F0C0F8E2
:101990000F480122202102F0BBF82B6832205C6343
:1019A0009C6303F052FF2B685C639C6338BD00BFEF
:1019B00099A40008BC0400207404002041A400087D
:1019C0001005002014050020080500205403002005
:1019D00000000240000000002DE9F04F4C494D4846
:1019E000DFF85491DFF8548187B0FF23032257ECCE
:1019F000106B03F07BFC484B484A1B6800245C6278
:101A0000474BC9F800401B680A215C62454B0846F9
:101A10001C6005F0A7FC38A3D3E900233046394603
:101A2000FEF724FF36A3D3E90023FEF7F5FD36A326
:101A3000D3E90023FEF738FC02460B4606460F4664
:101A400001A8394906F000FCD8F8003095221A6444
:101A50004FF47A7003F0F9FE34480122082102F0B5
:101A600057F832482246042102F052F82F4801224A
:101A7000102102F04DF82D482246202102F048F8AE
:101A80002B4B1B684FF4FA625A6340F6CA029A6302
:101A9000284B00200021C3E900014FF08B0A4FF0D2
:101AA0009F0BD9F80000FEF74DFD04460D46024697
:101AB0000B4630463946FFF73FF870B1D8F8003092
:101AC0003C20C3F840A003F0C0FED8F8003032201C
:101AD000C3F840B003F0B9FEE3E722462B46304698
:101AE0003946FFF715F80028DBD0FFF727FF07B0CE
:101AF000BDE8F08FAFF300800000000000E06A4016
:101B000000000000005C98401A69A9BC1D316B40C0
:101B1000A7A40008BC0400209C03002047A40008E0
:101B2000E40300201005002087A400080000024004
:101B30007404002008050020140500205403002030
:101B40002DE9F84F4C4B4D4D1B68DFF850914C4937
:101B5000DFF84C8100242DED028B5C62494B2C6038
:101B60001B68C9F8004082465C620322FF23464896
:101B700057EC106B03F0BAFB0A210846434A05F004
:101B8000F1FB37A3D3E9002330463946FEF76EFE5A
:101B900035A3D3E90023FEF73FFD35A3D3E90023A6
:101BA000FEF782FBD8F8003095221A6441EC180B3E
:101BB0004FF47A7003F049FE35480122082101F004
:101BC000A7FF33482246042101F0A2FF304801223A
:101BD000102101F09DFF2E482246202101F098FFA0
:101BE0002C4B1B6840F6CA02C3F834A09A632A4BF8
:101BF00000200021C3E900014FF08B0A4FF09F0B3A
:101C00002868FEF79FFC02460B4606460F4651EC3D
:101C1000180BFEF791FF044670B1D8F800303C2055
:101C2000C3F840A003F011FED8F800303220C3F80A
:101C300040B003F00AFEE3E751EC180B32463B4696
:101C4000FEF766FF0028DBD0FFF778FEFFF776FE91
:101C5000BDEC028B2C60C9F80040BDE8F88F00BFD6
:101C60000000000000E06A4000000000005C9840B6
:101C70001A69A9BC1D316B409C030020140500208B
:101C8000A7A40008E4030020BC04002047A4000827
:101C90000000024074040020080500201005002008
:101CA00054030020000000002DE9F84F544B554D1F
:101CB0001B68554C55495648DFF870A1DFF8709104
:101CC0004FF000082DED028BC3F82480514BC5F86E
:101CD00000801B68C4F80080C3F824800322FF231F
:101CE00057EC106B03F002FB0A2108464A4A05F044
:101CF00039FBC5F80080494DC4F80080002200235C
:101D0000CAE900232B6897221A644FF4FA7003F093
:101D10009CFD42464248082101F0FAFE404801225B
:101D2000042101F0F5FE42463D48102101F0F0FE8D
:101D30003B480122202101F0EBFE3A4B1B684FF497
:101D4000FA625A6340F6CA029A633046364B002262
:101D50003946FEF7A9FA24A3D3E90023FEF786FD4E
:101D600023A3D3E90023FEF757FC23A3D3E90023E1
:101D7000FEF79CFA41EC180B4FF000080A2003F024
:101D800064FDDAE90067284B002230463946FEF749
:101D9000C9FEC0B12B688B221A64142003F055FDD4
:101DA0002068FEF7CFFB02460B4651EC180BFEF7FE
:101DB000B9FE0028E2D0FFF7C1FDBDEC028BBDE803
:101DC000F84FFFF7BBBD42464B4630463946D5F883
:101DD00000B0FEF79DFE18B19F23CBF84030DCE742
:101DE0009723CBF84030DBE70000000000E06A40BA
:101DF00000000000005C98C01A69A9BC1D316B404E
:101E00009C0300201005002014050020ABA400084E
:101E1000BC040020E40300204EA40008540300206A
:101E200000000240740400200000F03F080500207C
:101E30000000F0BF000000002DE9F84F564B574D51
:101E40001B68574C57495848DFF878A14FF00008F5
:101E50002DED028BC3F82480544BC5F800801B681D
:101E6000C4F80080C3F824800322FF2357EC106BD2
:101E700003F03CFA0A2108464D4A05F073FAC5F80A
:101E800000804C4DC4F8008000220023CAE90023E2
:101E90002B6897221A644FF4FA7003F0D6FC42467E
:101EA0004548082101F034FE43480122042101F095
:101EB0002FFE42464048102101F02AFE3E480122F2
:101EC000202101F025FE3D4B1B6841F658325A6334
:101ED00041F63F329A633046394B00223946FEF7CD
:101EE000E3F927A3D3E90023FEF7C0FC26A3D3E937
:101EF0000023FEF791FB26A3D3E90023FEF7D6F9D2
:101F000041EC180B4FF000084FF040490A2003F055
:101F10009CFCDAE900672A4B002230463946FEF77E
:101F200001FEE0B12B688B221A64142003F08DFCB3
:101F30002068FEF707FB02460B4651EC180BFEF734
:101F4000F1FD0028E2D041F64E3141F65830FFF75E
:101F500095FCBDEC028BBDE8F84FFFF7EFBC4246A5
:101F60004B4630463946D5F800B0FEF7D1FD18B1E2
:101F70009F23CBF84030D8E79723CBF84030D7E702
:101F80000000000000E06A4000000000005C98C013
:101F90001A69A9BC1D316B409C030020100500206C
:101FA00014050020ABA40008BC040020E4030020BA
:101FB0004EA40008540300200000024074040020D6
:101FC0000000F03F0805002010B50C4C0C49FF2321
:101FD0000322204603F08AF90A210846094A05F03F
:101FE000C1F9094B09491B6897221A642046FF234F
:101FF000BDE81040032203F079B900BFBC04002003
:10200000AFA4000857A4000854030020B3A400089C
:102010002DE9F047FF230C4603222849284EDFF81C
:10202000BCA0284F0546284803F060F92748002245
:10203000042101F06DFD25480122082101F068FD11
:1020400022480122102101F063FD20211F480022B7
:1020500001F05EFD33685F221A6440F2DC5003F049
:10206000F4FB1B4B1B6840F235525A630A219C63F8
:10207000184C194A4FF000084FF000090846C4E90F
:10208000008905F06FF901225146384606F03FF904
:1020900058B90A2003F0D9FBE81EFEF753FAD4E939
:1020A0000023FEF735FD0028EDD033689722C4E900
:1020B00000891A64BDE8F047FFF740BCB7A40008E8
:1020C0005403002001000020BC0400200000024056
:1020D00074040020080500205FA400082CB3000849
:1020E0002DE9F047FF230E4603222849284F294CAB
:1020F000DFF8B8A00546284803F0F8F82748012281
:10210000042101F005FD25480022082101F000FD11
:1021100010212248002201F0FBFC3B685F221A6478
:102120004FF4FA7003F091FB1C480122202101F0CA
:10213000EFFC1B4B1B6840F235520A215A634FF0EB
:1021400000089E63174A184E4FF000090846C4E97C
:10215000008905F007F901225146304606F0D7F80C
:1021600058B90A2003F071FB281DFEF7EBF9D4E9FA
:102170000023FEF7D7FC0028EDD03B689722C4E986
:1021800000891A64BDE8F047FFF7D8BBBBA400087C
:102190005403002008050020BC0400200000024079
:1021A000740400205FA4000801000020BFA4000800
:1021B0002DE9F84F4E4C4F494F48504D504EFF239C
:1021C000032203F093F820460022082101F0A0FC2E
:1021D00020460122042101F09BFC204601222021FF
:1021E00001F096FC10210022204601F091FC2B68A2
:1021F00097271F644FF47A7003F027FB2B684FF08A
:10220000EB0AC3F840A0336840F6FC024FF47A7939
:102210005A634FF49660C3F8389003F016FB2B68AE
:102220004FF05F0BC3F840B0336840F2355840F6CA
:10223000FC02C3F834804FF4AF609A6303F005FBEF
:102240002B6820461F640122082101F061FC204612
:102250000022042101F05CFC20460022202101F034
:1022600057FC10212046012201F052FC336840F255
:102270004C425A6340F246529A63484603F0E5FAEC
:1022800020460022082101F043FC204601220421BF
:1022900001F03EFC20460122202101F039FC002201
:1022A0001021204601F034FC2B68C3F840B033689D
:1022B00040F63404C3F8348048469C6303F0C5FA02
:1022C0002B68C3F840A0336840F20A505C63C3F83F
:1022D000388003F0BAFA2B684FF4C8701F6403F01B
:1022E000B4FA336800225A639A63BDE8F88F00BFDE
:1022F00000000240B7A40008BC04002054030020E2
:1023000074040020000000002DE9F84F7849794856
:10231000794D7A4E2DED048BB0EE408AF0EE608A56
:10232000FF23032202F0E2FF75480022082101F09A
:10233000EFFB73480122042101F0EAFB70480122FF
:10234000202101F0E5FB102100226D4801F0E0FBA7
:102350002B6897271F6440F2523003F076FA2B68FF
:102360004FF0EB0BC3F840B0336840F6E4425A63D9
:10237000E1229A6340F2E24003F067FA2B681F649F
:10238000336800245C634FF4C8709C6303F05DFA0B
:102390002B684FF05F0AC3F840A0336840F26C78B6
:1023A00040F23559C3F834904FF4FA60C3F83880DE
:1023B00003F04BFA2B681F6433684FF4C8705C63FA
:1023C0009C6303F042FA2B68C3F840A0336840F2E4
:1023D0005460C3F83490C3F8388003F036FA2B68A1
:1023E0001F6433689FED3C9B5C634FF4C8709C6333
:1023F00003F02BFA434B9FED3A0B204683ED009BF5
:10240000FFF752FC0A2003F020FA2A68C2F840A025
:1024100032684FF4DC60C2F83490C2F8388003F0C0
:1024200014FA2A68176432684FF4C87054639463CE
:1024300003F00BFA334B0A2083ED009B03F005FAFF
:102440002B681F6433684FF4C8705C639C6303F0AF
:10245000FCF9B0EE480AF0EE680A2046FFF7ECFC03
:102460000A2003F0F2F92B680A20C3F840A003F019
:10247000ECF933684046C3F83490C3F8388003F071
:10248000E4F92B681F6433684FF4C8705C639C6385
:1024900003F0DBF99FED140B2046FFF79DFA2B6844
:1024A0000A20C3F840B003F0D0F9336840F6FC00CE
:1024B000C3F83480C3F8389003F0C7F9BDEC048B3F
:1024C0002B681F6433684FF4C8705C639C63BDE87D
:1024D000F84F03F0BAB900BF000000000000000090
:1024E0000000000000C082400000000000005940D1
:1024F000B7A40008BC04002054030020740400208A
:1025000000000240080500202DE9F047FF230C469B
:1025100003222849284EDFF8BCA0284F054628484A
:1025200002F0E4FE27480122082101F0F1FA2548D3
:102530000022042101F0ECFA22480022202101F0BF
:10254000E7FA10211F48012201F0E2FA3368EB227A
:102550001A644FF4FA7003F078F91B4B1B6840F2D1
:1025600035525C630A21194C9A630846184A4FF0A9
:1025700000084FF0000904F0F5FEC4E900890122CB
:102580005146384605F0C3FE58B90A2003F05DF9FC
:10259000A81CFDF7D7FFD4E90023FEF7C3FA0028F3
:1025A000EDD033689722C4E900891A64BDE8F0478A
:1025B000FFF7C4B9C1A400085403002001000020A3
:1025C000BC04002000000240740400200805002024
:1025D0006AA40008C5A400082DE9F047FF230C46B3
:1025E00003222949294EDFF8C0A0294F0546294872
:1025F00002F07CFE28480022082101F089FA2648D2
:102600000122042101F084FA23480122202101F053
:102610007FFA10212048002201F07AFA3368EB2279
:102620001A644FF4FA7003F010F91C4B1B68643CF9
:102630005C6340F235520A21194C9A630846194AE4
:102640004FF000084FF0000904F08CFEC4E9008947
:1026500001225146384605F05AFE58B90A2003F0C7
:10266000F4F8E81EFDF76EFFD4E90023FEF750FAF8
:102670000028EDD033689722C4E900891A64BDE8C8
:10268000F047FFF75BB900BFC7A400085403002060
:1026900001000020BC04002000000240740400205F
:1026A0000805002071A400082BA600082DE9F84FAA
:1026B0004E4C4F494F48504D504EFF23032202F0DD
:1026C00015FE00220821204601F022FA01220421F1
:1026D000204601F01DFA01222021204601F018FABF
:1026E00000221021204601F013FA2B684FF09709C1
:1026F000C3F840904FF47A7003F0A7F82B684FF0BE
:102700005F0AC3F840A0336840F2355840F26C7756
:10271000C3F834804FF496609F6303F096F82B68FB
:102720004FF0DC0BC3F840B0336840F21C705F63BD
:10273000C3F8388003F089F82B680122C3F8409071
:102740000821204601F0E4F900220421204601F08E
:10275000DFF900222021204601F0DAF910210122C0
:10276000204601F0D5F9336840F24C425A6340F2FA
:1027700046529A6340F2DC5003F067F800220821C9
:10278000204601F0C5F901220421204601F0C0F9DC
:1027900001222021204601F0BBF900221021204611
:1027A00001F0B6F92B68C3F840B0336840F2DC5052
:1027B0005F63C3F8388003F048F82B68C3F840A083
:1027C000336840F28250C3F834809F6303F03DF8D1
:1027D0002B684FF4C870C3F8409003F036F83368A4
:1027E00000225A639A63BDE8F88F00BF00000240E0
:1027F000C1A40008BC04002054030020740400207D
:102800002DE9F84F82498348834D844E2DED048B8A
:10281000B0EE408AF0EE608AFF23032202F066FDEC
:102820007F480022082101F073F97D48012204212C
:1028300001F06EF97A480122202101F069F9102196
:102840000022774801F064F92B6897271F644FF442
:102850007A7002F0FAFF2B684FF05F0BC3F840B0BC
:102860003368E1225A6340F628229A6340F26450AA
:1028700002F0EBFF2B681F64336800245C634FF4A5
:10288000C8709C6302F0E1FF9FED570B2046FFF7F5
:102890000BFA2B684FF0EB0AC3F840A0336840F204
:1028A0006C7840F23559C3F8348040F63400C3F8F0
:1028B000389002F0CAFF2B681F6433684FF4C87069
:1028C0005C639C6302F0C1FF2B68C3F840A03368CF
:1028D00040F63400C3F83480C3F8389002F0B5FFF6
:1028E0002B681F6433689FED429B5C634FF4C87094
:1028F0009C6302F0AAFF4B4B9FED3F0B204683EDFC
:10290000009BFFF7D1F90A2002F09FFF2A68C2F866
:1029100040A032684FF4FA60C2F83480C2F83890B0
:1029200002F093FF2A68176432684FF4C87054634A
:10293000946302F08AFF3B4B9FED310B204683ED01
:10294000009BFFF7B1F90A2002F07FFF2B681F649C
:1029500033684FF4C8705C639C6302F076FFB0EE9E
:10296000480AF0EE680A2046FFF766FA0A2002F0ED
:102970006CFF2B680A20C3F840A002F066FF3368A2
:102980004FF4FA60C3F83480C3F8389002F05DFF6A
:102990002B684FF4C8701F6402F057FF33689FED37
:1029A0001A0B5C6320469C63FFF716F82B680A201D
:1029B000C3F840B002F049FF33684FF4FA60C3F83F
:1029C0003490C3F8388002F040FFBDEC048B2B68D4
:1029D0001F6433684FF4C8705C639C63BDE8F84FB4
:1029E00002F033BFAFF30080000000000000594048
:1029F000000000000000000000000000000079401E
:102A000000000000000069400000000000C07240AB
:102A1000CBA40008BC040020540300207404002050
:102A200000000240080500202DE9F04F2DED028B3B
:102A3000002183B0D648DFF8A0B3D64F02F000FBE8
:102A40000421D34802F0FCFAD3480C2102F0F8FA32
:102A50009FEDC58B4FF0000A0026D04CD0490122D3
:102A6000204605F054FC70BBCE4ADFF8609332215B
:102A70000A2004F077FC6578CB49A5F13003A578EE
:102A80004FF00A08303D642208FB05F502FB0355B0
:102A9000E378303B1D442A46684605F0D5FB6A467C
:102AA0003221404604F05EFCD9F800106842FFF77E
:102AB0002BFD404602F0C9FE9FEDAD0BD9F800009A
:102AC000FFF7BAF942E0B9490122204605F01FFCA0
:102AD00000284DD1B34ADFF8F49232210A2004F0E5
:102AE00041FC6578B049A5F13003A5784FF00A089C
:102AF000303D642208FB05F502FB0355E378303BCB
:102B00001D442A46684605F09FFB6A46322140462E
:102B100004F028FC404602F098FE9FED950BD9F892
:102B20000000FFF70DF84FF4FA7002F08EFED9F8AE
:102B300000102846FFF750FD4FF4FA7002F085FEB2
:102B40009FED8D0BD9F80000FEF7FAFF404602F02A
:102B50007CFE97499748FF23032202F0C7FB964A61
:102B60000023136013710520236002F06EFE74E7EA
:102B700092490122204605F0CAFBA8BB904ADFF823
:102B80004C9232210A2004F0EDFB65788649A5F1CC
:102B90003003A5784FF00A08303D642208FB05F5A4
:102BA00002FB0355E378303B1D442A46684605F096
:102BB0004BFB6A463221404604F0D4FB9FED700B7C
:102BC000D9F80000FEF7BCFF404602F03EFED9F8FF
:102BD00000102846FFF71CFA404602F036FE9FED33
:102BE0006A0BD9F800006BE776490122204605F010
:102BF0008EFBC8BB724ADFF8D49132210A2004F060
:102C0000B1FB65786849A5F13003A5784FF00A0853
:102C1000303D08FB05F5642202FB0355E378303BA9
:102C20001D442A46684605F00FFB6A46322140469D
:102C300004F098FB4BEC10ABD9F80000FEF780FFD6
:102C4000404602F002FED9F800106842FFF748FA49
:102C5000404602F0FAFDB0EE480AF0EE680AD9F8F4
:102C60000000FFF7E9F874E757490122204605F014
:102C70004EFB98BB60783038FDF764FC52465B46EB
:102C8000FDF7CAFC8046A07830388946FDF75AFC2B
:102C900032463B46FDF7C0FC02460B4640464946DD
:102CA000FDF704FB8046E07830388946FDF74AFCA2
:102CB00002460B4640464946FDF7F8FA3B46324687
:102CC000FDF7AAFCFDF758FFFDF73CFC3F4B41EC3C
:102CD000100B1868FEF780FE0A2038E73C490122F5
:102CE000204605F014FB90BB60783038FDF72AFCD5
:102CF00052465B46FDF790FC8046A0783038894606
:102D0000FDF720FC32463B46FDF786FC02460B46AB
:102D100040464946FDF7CAFA8046E0783038894691
:102D2000FDF710FC02460B4640464946FDF7BEFA49
:102D30003B463246FDF770FCFDF71EFFFDF702FC37
:102D4000224B41EC100B1868FEF7AEFFC4E7214997
:102D50002046FDF73DFA002840D1FFF735F90A205B
:102D600002F073FDFBE600BF0000000000004440DD
:102D70000000000000C06740000000000000494063
:102D800000000000008041400000000000005E40A4
:102D9000740400200000244054030020010000209F
:102DA000C5A400087DA4000880A400082BA6000884
:102DB000B3A40008BC0400201C0200202CB30008AF
:102DC00084A40008BFA4000823B100080800002064
:102DD000CFA40008D1A40008000059405E49204655
:102DE000FDF7F6F910B9FFF7E3F975E75B49012242
:102DF000204605F08CFA80BB60783038FDF7A2FBE6
:102E000052465B46FDF708FC8046A078303889467C
:102E1000FDF798FB32463B46FDF7FEFB02460B46AC
:102E200040464946FDF742FA8046E0783038894608
:102E3000FDF788FB02460B4640464946FDF736FA49
:102E400032463B46FDF7E8FBFDF796FEFDF77AFBC1
:102E500041EC100BFFF758FA3EE741492046FDF7D9
:102E6000B7F910B9FFF722FC36E73E493E48012288
:102E700005F04DFA80BB60783038FDF763FB5246B1
:102E80005B46FDF7C9FB8046A07830388946FDF7E0
:102E900059FB32463B46FDF7BFFB02460B46404618
:102EA0004946FDF703FA8046E07830388946FDF759
:102EB00049FB02460B4640464946FDF7F7F93246C4
:102EC0003B46FDF7A9FBFDF757FEFDF73BFB41EC49
:102ED000100BFFF795FCFFE624492348FDF778F92E
:102EE00038BB642002F0B1FC4FF4FA60FEF774FDC9
:102EF0001F4DDFF888802B68B3F57A6F11DBFEF782
:102F0000BDFC41F2883002F0A0FC1A4BDFF86C8067
:102F10001868FEF7C9FE2B68002B06DCFEF7AEFC36
:102F20001DE6404605F0FEF8E5E7404605F0FAF8F4
:102F3000F1E711490C48FDF74BF930B9FEF7FEFCFB
:102F4000642002F082FC64200AE7074A28210A2054
:102F500004F008FA03E600BFD6A40008E5A40008C0
:102F6000DBA40008E0A4000801000020E2A400089F
:102F70001805002008000020EDA40008E7A40008C0
:102F800082B00E4B00220092596C41F4804159648A
:102F9000596C01F48041009100990192196C41F043
:102FA000805119641B6C03F080530193019B0F2126
:102FB0006FF0010002B000F027BC00BF00380240F3
:102FC00030B514228BB0044600210DEB020004F052
:102FD000A2FB2368294A93421ED1294B294800218C
:102FE00000915A6C42F480725A645A6C02F48072F6
:102FF0000092009A01911A6B42F004021A631B6B53
:1030000003F004030193019B0323CDE9053305A9D4
:1030100000F0A4FC0BB030BD1B4A9342FAD1184B10
:103020001848002402945A6C42F400725A645A6C94
:1030300002F400720292029A03941A6B42F00402A4
:103040001A631A6B02F004020392039A04941A6B37
:1030500042F001021A631B6B03F001030493049B0B
:103060000325022305A9CDE9053500F077FC0123EE
:10307000CDE905350548079405A9C9E700200140B9
:1030800000380240000802400021014000000240D8
:1030900030B5044689B01422002103A804F03BFB9C
:1030A0002268144B9A4222D1134C144800250195F2
:1030B000236B43F002032363236B03F002030193AA
:1030C000019B4FF440721223CDE903230321042313
:1030D000CDE9061303A900F041FC0295236C43F4EB
:1030E00000132364236C03F400130293029B09B0C2
:1030F00030BD00BF005400400038024000040240D0
:1031000010B514228AB0044600210DEB020004F031
:1031100002FB2368224A93420DD100230193214BE5
:103120005A6C42F001025A645B6C03F00103019394
:10313000019B0AB010BD1C4A93420CD1002302939C
:10314000184B1A6C42F004021A641B6C03F004035F
:103150000293029BEDE7154A9342EAD1114B1448C2
:10316000002103915A6C42F002025A645A6C02F038
:1031700002020392039A04911A6B42F004021A634A
:103180001B6B03F004030493049B4FF4E0720223CF
:10319000CDE9052305A90323099300F0DFFBC8E768
:1031A00000000140003802400008004000040140D7
:1031B0000008024070B514228AB0044600210DEBCD
:1031C000020004F0A8FA2368B3F1804F37D103F569
:1031D0000E33002400941A6C294842F001021A644C
:1031E0001A6C02F001020092009A01941A6B42F0EC
:1031F00001021A631A6B02F001020192019A029411
:103200001A6B42F002021A631B6B03F00203029373
:10321000029B02264FF40043012505A9CDE905369E
:10322000099500F09BFB0823CDE90536CDE907445D
:103230001448099505A900F091FB0AB070BD124A27
:103240009342FAD1114B0E48002103911A6C42F0BF
:1032500002021A641A6C02F002020392039A0491A9
:103260001A6B42F001021A631B6B03F00103049313
:10327000049BC0220223CDE90523099305A9DAE7BF
:1032800000000240000402400004004000380240F8
:1032900010B5044686B01422002101A804F03BFAC0
:1032A00022680E4B9A4216D1002300930C4B0D4816
:1032B0001A6B42F010021A631B6B03F010030093A9
:1032C000009B4FF480420223CDE9012301A9012391
:1032D000059300F043FB06B010BD00BF00000140A5
:1032E000003802400010024010B5044688B0142295
:1032F000002103A804F00FFA2268184B9A422AD141
:1033000003F5F833002401941A6C154842F4802226
:103310001A641A6C02F480220192019A02941A6BC8
:1033200042F004021A631B6B03F0040302934FF490
:103330004062029B0223CDE90323069303A90723DE
:10334000079300F00BFB27202246052100F05CFAD2
:10335000272000F08BFA08B010BD00BF00480040E5
:1033600000080240FEE7FEE7FEE7FEE7FEE77047E3
:1033700008B500F0D9F803F047FA012803D0BDE8FA
:10338000084003F04FBD08BD014802F065B800BF1A
:10339000BC0400200120704708B504F08BF8162308
:1033A00003604FF0FF3008BD08B504F083F8162322
:1033B0000360FEE770B50D4614460E46731B9C4233
:1033C00001DC204670BDAFF3008006F8010BF5E785
:1033D00070B50D4614460E46731B9C4201DC204618
:1033E00070BD16F8010BAFF30080F5E74FF0FF302A
:1033F00070474FF400534B60002070470120704726
:10340000002070470B4A116810B5034609B90A49F4
:103410001160106809490A4C0344091B8B4206D904
:1034200004F048F80C2303604FF0FF3010BD136028
:10343000FCE700BF1C0500204053002000000220D4
:1034400000040000034AD2F8883043F47003C2F845
:103450008830704700ED00E0DFF834D00D480E49A9
:103460000E4A002302E0D458C4500433C4188C42DE
:10347000F9D30B4A0B4C002301E013600432A24243
:10348000FBD3FFF7DFFF04F011F9FDF709FF7047E9
:103490000000022000000020EC0100208CB4000895
:1034A000F001002040530020FEE7000038B50E4A2E
:1034B0000E4B054618784FF47A73B3FBF0F310689F
:1034C000B0FBF3F000F0E0F9044658B90F2D09D82D
:1034D000024629464FF0FF3000F096F9044B204693
:1034E0001D6038BD0120FCE70C000020100000200A
:1034F0001400002008B50B4B1A6842F400721A60E1
:103500001A6842F480621A601A6842F480721A6083
:10351000032000F067F90F20FFF7C8FFFFF730FD29
:10352000002008BD003C0240034A044B11681B7890
:103530000B441360704700BF2005002010000020DE
:10354000014B1868704700BF2005002038B50446BD
:10355000FFF7F6FF631C1CBF054B1B78054618BF21
:10356000E418FFF7EDFF431BA342FAD338BD00BFB9
:103570001000002038B50446002800F09B80056C40
:1035800025B9FFF71DFD656484F83C50236CDB060C
:1035900000F18E80236C23F4885323F0020343F060
:1035A00002032364444B5A6822F440325A605A683A
:1035B00061680A435A60236821695A6822F480725C
:1035C0005A605A6842EA01225A605A68A16822F099
:1035D00040725A605A680A435A609A68E16822F455
:1035E00000629A609A680A439A603449A26A8A42E1
:1035F00052D0996821F07061996099680A439A6085
:103600009A68E16A22F040529A609A680A439A6086
:103610009A6822F002029A609A68217E42EA410288
:103620009A6094F82020002A3ED05A68616A42F4D9
:1036300000625A605A6822F460425A605A6801393E
:1036400042EA41325A60DA6AE16922F47002DA62CF
:10365000DA6A013942EA0152DA629A6822F40072A7
:103660009A609A6894F8301042EA41229A609A6807
:10367000616922F480629A609A68002042EA81229D
:103680009A606064236C23F0030343F00103236416
:10369000002384F83C3038BD9A6822F070629A604A
:1036A0009A6822F04052B2E75A6822F40062C9E7F1
:1036B0000120EDE70120EEE7002301400100000FAB
:1036C000F7B50023019390F83C30012B66D001231D
:1036D00080F83C300D6803688E68092DACB231D992
:1036E00004EB4402DF681E3A4FF0070C0CFA02FCB0
:1036F00027EA0C07DF60DF6806FA02F23A43DA6075
:103700004968062901EB81022CD8596B053A1F261E
:10371000964021EA06015963596B04FA02F20A4302
:103720005A632C4A934207D1122D39D1D2F804336F
:1037300043F48003C2F80433002380F83C30184679
:1037400003B0F0BD1F6905EB45024FF0070C0CFA02
:1037500002FC27EA0C071F611F6906FA02F23A43CE
:103760001A61CDE70C294FF01F010BD81E6B233ACD
:10377000914026EA01011963196B04FA02F20A4327
:103780001A63CEE7DE6A413A914026EA0101D96226
:10379000D96A04FA02F20A43DA62C2E70220CFE7EA
:1037A000A5F11003012BC7D80B4A5368102D43F421
:1037B00000035360C0D1094B094A1B68B3FBF2F305
:1037C0000A2253430193019B002BB5D0019B013B7F
:1037D000F8E700BF00200140002301400C0000205A
:1037E00040420F000749CA6822F4E0620302120453
:1037F00003F4E063120C134343F0BF6343F400335C
:10380000CB60704700ED00E0164B30B5DC68C4F3C8
:103810000224C4F10705231D042D28BF0425062B0F
:103820004FF0FF338CBF033C002403FA05F521EA77
:103830000501A34022EA0302A140002841EA020355
:10384000ACBF00F16040084A4FEA0313B8BF00F074
:103850000F00DBB2AABF00F56140135480F80033BB
:1038600030BD00BF00ED00E014ED00E0002808DBF3
:103870004209012300F01F0003FA00F0014B43F856
:103880002200704700E100E00138B0F1807F0BD2E8
:103890004FF0E023054A5861F02182F82310002000
:1038A000072298611A6170470120704700ED00E01F
:1038B00070B50446866DFFF743FE94F83530022B51
:1038C000054606D080236365002384F83430012048
:1038D00070BD23681A6822F016021A605A6922F035
:1038E00080025A61226C0AB9A26C1AB11A6822F0DD
:1038F00008021A601A6822F001021A6023681B6825
:1039000013F001030AD1E16D3F228A40B260012227
:1039100084F8352084F834301846D9E7FFF710FED4
:10392000401B0528EAD9202363650320002384F87F
:10393000350084F83430CBE790F83530022B03D0D3
:1039400080234365012070470268052380F83530E5
:10395000136823F001031360002070472DE9F74F2F
:10396000DFF8A891674A00230D6801249C4004EA0F
:10397000050CAC4340F0B1804D6805F003044FEAFC
:1039800043080326671E06FA08F6012F6FEA0606AB
:1039900034D8876807EA060ECF6807FA08F747EABF
:1039A0000E078760476827EA0C0EC5F300179F4093
:1039B00047EA0E074760C76807EA060E8F6807FAEE
:1039C00008F747EA0E07022CC76019D14FEAD30A5D
:1039D00000EB8A0A03F0070BDAF820704FEA8B0B32
:1039E0004FF00F0E0EFA0BFE27EA0E0E0F6907FAC4
:1039F0000BF747EA0E07CAF8207001E0032CDAD172
:103A0000076804FA08F43E40264315F4403F066078
:103A100063D04FF0000ACDF804A0D9F844603A4CC6
:103A200046F48046C9F84460D9F8446006F48046FC
:103A30000196019E23F0030606F1804606F59C36AA
:103A400003F0030ED6F808804FEA8E0E0F2707FA10
:103A50000EF7A04228EA070746D004F58064A0428A
:103A600044D004F58064A04242D004F58064A042B2
:103A700040D004F58064A0423ED004F58064A042AA
:103A80003CD004F58064A0423AD004F58064A042A2
:103A90000CBF0724082404FA0EF43C43B460946875
:103AA0006FEA0C06EF0254BF34404CEA0404946001
:103AB000D468AF0254BF34404CEA0404D460546864
:103AC000AF0354BF34404CEA040454601468ED035F
:103AD00054BF34404CEA040414600133102B7FF4CB
:103AE00043AF03B0BDE8F08F5446D4E70124D2E7DA
:103AF0000224D0E70324CEE70424CCE70524CAE758
:103B00000624C8E7003C01400000024000380240A3
:103B10000AB1816170470904FBE7436901EA0302C6
:103B200021EA030141EA02418161704701684B6962
:103B300013F480634FF0000210D06FF480634B6188
:103B40002023026380F83D3080F83E20036C80F82B
:103B50003C2043F00403036401207047184670477B
:103B60002DE9F84606460F4691461D464FEA114A92
:103B70003368BAF1010F0CBF5C699C6927EA040441
:103B8000A4B2B4FA84F46409A14501D0002017E07E
:103B90006A1CEED0FFF7D4FC089BC01AA84201D8DB
:103BA000002DE5D100232022336386F83D2086F8DE
:103BB0003E30326C86F83C3042F020023264012004
:103BC000BDE8F8862DE9F04104460F4616469846B2
:103BD0002568686927EA000080B2B8B16B695A05A8
:103BE00016D52B6843F400732B606FF480636B6110
:103BF00020220023236384F83D2084F83E30226C89
:103C000042F00402226484F83C300120BDE8F081D7
:103C1000731CDED0FFF794FCA0EB0800B04201D883
:103C2000002ED5D100232022236384F83D2084F880
:103C30003E30226C42F02002E4E770B504460D46A7
:103C4000164621684B6913F0400301D0002010E0B4
:103C50004A69D2060ED56FF010024A612022236312
:103C600084F83D2084F83E30226C226484F83C3095
:103C7000012070BDFFF764FC801BA84201D8002D15
:103C8000DFD100232022236384F83D2084F83E30D6
:103C9000226C42F02002E8E770B504460D46164655
:103CA00023685B695B0701D5002070BD2046FFF7E4
:103CB0003DFFA8B96A1CF3D0FFF742FC801BA84265
:103CC00001D8002DECD100232022236384F83D206D
:103CD00084F83E30226C84F83C3042F020022264AA
:103CE0000120E2E770B504460D46164623685B697D
:103CF0001B0601D5002070BD2046FFF717FFA8B9AD
:103D00006A1CF3D0FFF71CFC801BA84201D8002DD1
:103D1000ECD100232022236384F83D2084F83E3038
:103D2000226C84F83C3042F0200222640120E2E759
:103D300070B5044608B9012070BD90F83D3003F01D
:103D4000FF021BB980F83C20FFF7A2F9242384F876
:103D50003D3023681A6822F001021A601A6842F4A2
:103D600000421A601A6822F400421A6000F066FDF0
:103D70003F4B65689D4294BF3E4B3F4B98428CBF82
:103D800000230123002BD6D12268394E53683B49CA
:103D9000B0FBF1F123F03F030B43B542536088BF02
:103DA0004FF49676136A88BF714323F03F0384BFB4
:103DB0004FF47A76B1FBF6F1013119431162D16902
:103DC000431E2B4821F44F41854221F0FF0132D898
:103DD0006D0040F6FC70B3FBF5F30133034242D0B3
:103DE000C3F30B030B43D361D4E9073011680343DA
:103DF00021F0C0010B4313609168D4E9030321F45F
:103E00000341034321F0FF010B439360D4E90530E4
:103E1000D168034321F0FF010B43D360136843F0E3
:103E20000103136000202023206484F83D302063C8
:103E300084F83E0080E7A06850B905EB4505B3FB68
:103E4000F5F30133C3F30B037BB143F40043C9E73C
:103E500019204543B3FBF5F30133C3F30B0323B13F
:103E600043F44043BEE70423BCE70123BAE700BFA5
:103E7000A08601007F841E00FF083D0040420F0025
:103E80002DE9F043044685B098460C9F0D469146B7
:103E9000FFF756FB94F83D30202B064604D0022550
:103EA000284605B0BDE8F08300905D491923012242
:103EB0002046FFF755FE0028F1D194F83C30012B45
:103EC000EDD02168012384F83C300B68DA075EBF2F
:103ED0000B6843F001030B600B6823F400630B6075
:103EE000212384F83D30102384F83E3000232364DE
:103EF000A4F82A80638D23854A4BE362E36AC4F801
:103F00002490082B04D0012B02D013F5803F04D15C
:103F10000B6843F480730B6002E0236B122BF7D025
:103F2000002200963B464FF001112046FFF718FE95
:103F3000226838B11368DB0544BF4FF40073236473
:103F40000125ADE72369B3F5804F21D105F0FE05CA
:103F50001561354933463A462046FFF733FE05469C
:103F60000028EDD1236803905A6903929B6903935B
:103F7000039B238DF3B921680A6842F400720A603A
:103F8000202284F83D2084F83C3084F83E3087E7D6
:103F9000EB1103F0060343F0F003136123493346AA
:103FA0003A462046FFF70EFE0028C9D12368EDB23D
:103FB0001D61CEE7324639462046FFF793FE40B1F9
:103FC000236C042BBCD12268136843F40073136084
:103FD000B6E7636A20681A4612F8011B0161626243
:103FE000628D013A92B26285228DD0F814C0511EC2
:103FF00089B21CF0040F21850AD049B159780161BA
:1040000002336362638D013B9BB2023A6385228572
:10401000324639462046FFF73FFE0028A9D0CFE7B9
:10402000020010000000FFFF020001000800010074
:104030002DE9F043044689B09846109F0E469146FC
:10404000FFF77EFA94F83D30202B054604D0022677
:10405000304609B0BDE8F08300909A491923012247
:104060002046FFF77DFD0028F1D194F83C30012B6C
:10407000EDD02168012384F83C300B68DB075EBF7C
:104080000B6843F001030B600B6823F400630B60C3
:10409000222384F83D30102384F83E30002323642B
:1040A000A4F82A80638D2385874BE362E36A0A685C
:1040B000C4F8249042F48062082B0A6004D0012BDB
:1040C00002D013F5803F04D10B6843F480730B607A
:1040D00002E0236B112BF7D03B46009500224FF0F6
:1040E00001112046FFF73CFD236838B11B68D80555
:1040F00002D54FF4007323640126A9E72269B2F5C3
:10410000804F27D146F00106F6B21E616F492B465B
:104110003A462046FFF756FD06460028ECD1238D8F
:104120002168002B4BD103904B6903938B69039358
:10413000039B0B6843F400730B60DFF89881238DB9
:10414000002B64D1202284F83D2084F83C3084F890
:104150003E307DE74FEAE61808F0060848F0F00226
:104160001A615B492B463A462046FFF72BFD002893
:10417000C2D123685549F6B21E613A462B46204605
:10418000FFF720FD0028B7D1236807905A690792EE
:104190009A690792079A1A6842F480721A604FF07F
:1041A0000111024600953B462046FFF7D9FC2268E4
:1041B00008B113689BE748F0F1031361A6E7012BF0
:1041C0000AD10B6823F480630B6004904B6904935D
:1041D0008B690493049BACE7022B0B680DD123F48D
:1041E00080630B600B6843F400630B6005904B69C0
:1041F00005938B690593059B9FE743F480630B60F0
:1042000006904B6906938B690693069B95E7032BF3
:1042100062D8012B16D12A4639462046FFF70DFDFC
:1042200000287FF469AF23681A69636A1A70636AA9
:1042300001336362238D013B2385638D013B9BB278
:1042400063857CE7022B00953B464FF00002414618
:1042500020461AD1FFF784FC00287FF44DAF236875
:104260001A6842F400721A601A69636A1A70626A04
:10427000531C6362238D013B2385638D013B9BB2FD
:10428000638523681B695370D1E7FFF769FC002839
:104290007FF432AF23681A6822F480621A601A69C8
:1042A000636A1A70636A009501336362238D013B70
:1042B0002385638D013B9BB2638502463B464146A5
:1042C0002046C7E7020010000000FFFF02000100C7
:1042D00008000100040001002A4639462046FFF785
:1042E000ACFC00287FF408AF23681A69636A1A706F
:1042F000626A531C6362238D013B2385638D013BFE
:104300009BB263852368596949077FF518AFB9E700
:10431000044B01221A62044B82B01B680193019B7B
:1043200002B0704700000E4200700040044B0022B3
:104330001A62044B82B01B680193019B02B0704764
:1043400000000E42007000402DE9F341044640B3E6
:104350000368DD0710D4236898075ED423681A0722
:1043600000F1A08023685B0700F1C080A0690028ED
:1043700040F0288100202BE08F4B9A6802F00C025D
:10438000042A07D09A6802F00C02082A0BD15A6856
:10439000510208D5884B1B689A03DCD56368002B53
:1043A000D9D1012014E06268B2F5803F13D11A68B8
:1043B00042F480321A60FFF7C3F87F4E0546336837
:1043C0009B03C8D4FFF7BCF8401B6428F7D903202F
:1043D00002B0BDE8F081784DB2F5A02F2B6807D16F
:1043E00043F480232B602B6843F480332B60E2E797
:1043F00023F480332B602B6823F480232B60002A66
:10440000D9D1FFF79DF806462B689F03A3D5FFF788
:1044100097F8801B6428F7D9D9E7674B9A6812F0A0
:104420000C0F07D09A6802F00C02082A11D15B68C1
:104430005E020ED4604A13689D0702D5E368012B23
:10444000AFD11368216923F0F80343EAC103136075
:1044500084E7E268594BB2B101221A60FFF770F8A5
:10446000554D06462B68980707D52B68226923F01F
:10447000F80343EAC2032B6070E7FFF761F8801B83
:104480000228EFD9A3E71A60FFF75AF84A4E05460B
:10449000336899077FF562AFFFF752F8401B022897
:1044A000F6D994E76269454B82B10122C3F8802EA8
:1044B000FFF746F8404E0546736F9F073FF552AF32
:1044C000FFF73EF8401B0228F6D980E7C3F8802E9C
:1044D000FFF736F8384E0546736F98077FF542AF01
:1044E000FFF72EF8401B0228F6D970E7324B1A6C02
:1044F00012F0805228D101921A6C42F080521A6454
:104500001B6C03F080530193019B01272C4D2B68FA
:10451000D9051BD5A368284D012B27D12B6F43F05C
:1045200001032B67FFF70CF8234E054641F288384C
:10453000336F9B0739D5002F3FF418AF1E4A136C19
:1045400023F08053136411E70027DFE72B6843F45F
:1045500080732B60FEF7F4FF06462B68DA05D9D48A
:10456000FEF7EEFF801B0228F7D930E7052B04D1B8
:104570002B6F43F004032B67D0E72A6F22F0010270
:104580002A672A6F22F004022A67002BCAD1FEF79D
:10459000D7FF41F2883806462B6F9807CBD5FEF738
:1045A000CFFF801B4045F7D911E7FEF7C9FF401B3D
:1045B0004045BDD90BE700BF00380240000047422C
:1045C00000700040364DAB6803F00C03082B3DD063
:1045D000344B002202281A662BD1FEF7B1FF0646A3
:1045E0002B6899011FD4D4E907321343626A43EA66
:1045F0008213E26A43EA0263A26A5208013A43EA7A
:1046000002436B60274B264D01221A66FEF798FF86
:1046100004462B689A013FF5ADAEFEF791FF001BF3
:104620000228F6D9D3E6FEF78BFF801B0228D7D9E4
:10463000CDE6FEF785FF04462B689B017FF59AAE19
:10464000FEF77EFF001B0228F6D9C0E601283FF4E2
:10465000BFAE6B68E26903F4800191427FF4A1AEC2
:10466000216A03F03F028A427FF49BAE616A47F6FB
:10467000C0721A40B2EB811F7FF493AEA26A520857
:1046800003F44031013AB1EB024F7FF48AAEE26AA3
:1046900003F07063B3EB026F3FF46CAE81E600BFD2
:1046A0000038024000004742134908B58B6803F008
:1046B0000C03042B1CD0082B1CD14A684B6849689A
:1046C00013F4800314BF0D480D48C1F3881118BFBF
:1046D000002302F03F02A1FB0001FCF775FA064B34
:1046E0005B68C3F3014301335B00B0FBF3F008BD2B
:1046F0000248FCE70248FAE70038024040787D01B2
:104700000024F4002DE9F0410D46044610B90120C3
:10471000BDE8F081444B1A6802F007028A4228D3B0
:10472000226897072DD4D00741D43F4B1A6802F076
:104730000702AA4266D8226851076CD4130707D52E
:104740003A4A2169936823F4604343EAC1039360C2
:10475000FFF7AAFF354B364A9B68C3F30313D35CBC
:10476000D840344B1860344B1868FEF79FFE002089
:10477000CEE7CAB21A701B6803F007038B42C6D19A
:10478000CEE72A4B12F0040F1EBF996841F4E051A6
:104790009960160742BF996841F4604199602349C6
:1047A000A0688B6823F0F00303438B60BBE762686B
:1047B0001E4B012A1CD11B6813F4003FA7D01B4ECF
:1047C000B36823F003031343B360FEF7B9FE41F26D
:1047D00088380746B368626803F00C03B3EB820FB6
:1047E000A3D0FEF7ADFEC01B4045F3D903208FE7F1
:1047F000911E01291B6802D813F0007FDEE713F039
:10480000020FDBE7EAB21A701B6803F00703AB4242
:104810007FF47DAF8FE70549E0688B6823F4E053B0
:1048200003438B608AE700BF003C0240003802402F
:1048300010A600080C00002014000020044B054ABC
:104840009B68C3F38223D35C034A1068D840704747
:104850000038024020A600080C000020044B054A46
:104860009B68C3F34233D35C034A1068D840704757
:104870000038024020A600080C000020036A23F044
:1048800001030362036A70B5446882690D6822F00F
:1048900073022A438D6823F002032B430E4DA84276
:1048A00002D00E4EB04210D1CE6823F0080333433D
:1048B000A84223F0040302D0084DA84205D1D1E953
:1048C000055624F4407435432C43446082614A68A1
:1048D0004263036270BD00BF00000140000401405C
:1048E000036A23F480730362036A70B54468C26983
:1048F0000D6822F073022A438D6823F4007343EAA3
:104900000523114DA84203D005F58065A84214D1B6
:10491000CD6823F4006343EA05230B4DA84223F43A
:10492000806303D005F58065A84206D1D1E905561C
:1049300024F44054354344EA05144460C2614A6893
:10494000C263036270BD00BF00000140036A23F42C
:1049500080530362036A30B54468C2690D6822F46B
:10496000E64242EA05228D6823F4005343EA053308
:10497000084DA84203D005F58065A84204D14D69D1
:1049800024F4804444EA85144460C2614A680264A5
:10499000036230BD0000014090F83D30012B2CD166
:1049A0000223174A80F83D30036893421AD0B3F1CE
:1049B000804F17D0A2F57C42934213D002F580625B
:1049C00093420FD002F5806293420BD002F57842F9
:1049D000934207D002F57052934203D0A2F594326D
:1049E000934204D19A6802F00702062A03D01A689B
:1049F00042F001021A60002070470120704700BF9A
:104A000000000140704730B590F83E2090F83F30EC
:104A100090F8425090F84340D2B2DBB2EDB2E4B22B
:104A2000C9B9012A46D1012D46D1022380F83E3072
:104A300080F8423003681A6A22F001021A621A6A88
:104A400042F001021A620268136843F00103136026
:104A50000023184630BD042911D1012B2AD1012C85
:104A6000F7D1022380F83F3080F8433003681A6A98
:104A700022F010021A621A6A42F01002E2E7012ADA
:104A800018D1012B18D1012DE3D1012CE1D1022342
:104A900080F83E3080F83F3080F8423080F8433074
:104AA00003681A6A22F001021A621A6A42F00102CD
:104AB0001A62DCE70123CCE71346CAE7304A0368F1
:104AC000904212D0B0F1804F0FD0A2F57C429042BC
:104AD0000BD002F58062904207D002F580629042CE
:104AE00003D002F57842904219D14A6823F070034E
:104AF0001343234A904229D0B0F1804F26D0A2F52B
:104B00007C42904222D002F5806290421ED002F593
:104B1000806290421AD002F57842904216D0194A2B
:104B2000904213D002F5806290420FD002F580626D
:104B300090420BD0A2F59832904207D002F58062E5
:104B4000904203D002F58062904203D1CA6823F4F8
:104B5000407313434A6923F08003134303608B6857
:104B6000C3620B688362064B984203D003F58063EF
:104B7000984201D10B69036301234361704700BF71
:104B8000000001400040014010B5044630B390F8E9
:104B90003D3003F0FF021BB980F83C20FEF7B0FA6D
:104BA0000223206884F83D30211DFFF787FF012391
:104BB00084F84630002084F83E3084F83F3084F892
:104BC000403084F8413084F8423084F8433084F82F
:104BD000443084F8453084F83D3010BD0120FCE7B6
:104BE00010B5044630B390F83D3003F0FF021BB916
:104BF00080F83C20FFF706FF0223206884F83D3050
:104C0000211DFFF75BFF012384F84630002084F864
:104C10003E3084F83F3084F8403084F8413084F8E6
:104C2000423084F8433084F8443084F8453084F8C6
:104C30003D3010BD0120FCE7F8B50D4604460028C4
:104C40004DD090F83D3003F0FF021BB980F83C20B6
:104C5000FEF7B0FA2146022384F83D3051F8040BE8
:104C6000836823F4804323F007038360FFF726FF64
:104C700020682A6886688369A968076A1643AA6952
:104C800023F4407341EA022123F003030B4323F48E
:104C90007C422B69E9691B0143EA0123E9680B4364
:104CA000296A22F0FC0243EA01331343696927F0C1
:104CB000AA026F68866047EA0117836117430123E0
:104CC000076284F84630002084F83E3084F83F3094
:104CD00084F8423084F8433084F83D30F8BD012038
:104CE000FCE70000036A23F010030362036A70B557
:104CF000446882690D6822F4E64242EA05228D6822
:104D000023F0200343EA0513104DA84203D005F514
:104D10008065A84214D1CD6823F0800343EA0513CF
:104D20000A4DA84223F0400303D005F58065A84250
:104D300006D1D1E9055624F44064354344EA85049C
:104D4000446082614A688263036270BD0000014072
:104D500070B590F83C30012B054653D00120082A4D
:104D600085F83C003DD006D8C2B1042A28D00023E3
:104D700085F83C3070BD0C2AF9D12868FFF7E6FDB4
:104D80002B680969DA6942F40062DA61DA6922F4AF
:104D90008062DA61DA6942EA012231E02868FFF7CD
:104DA0006DFD2B6809699A6942F008029A619A6957
:104DB00022F004029A619A690A439A610020D6E7B8
:104DC0002868FFF78FFF2B6809699A6942F400622F
:104DD0009A619A6922F480629A619A6942EA012290
:104DE000EBE72868FFF77CFD2B680969DA6942F078
:104DF0000802DA61DA6922F00402DA61DA690A4348
:104E0000DA61DBE70220B5E710B58468114324F4CA
:104E10007F4441EA03232343836010BD70B590F8BB
:104E20003C30012B04464FF0020300F09180012238
:104E300080F83D3080F83C200068836823F47F438D
:104E400023F0770383600B68602B52D033D8402B5C
:104E500067D016D8202B0DD00AD833F0100109D016
:104E6000012384F83D30002384F83C30104670BDA7
:104E7000302BF5D1826822F07002134343F0070310
:104E800017E0502BECD14A68CE68016A056A25F01C
:104E900001050562836921F00A0123F0F00343EA6A
:104EA00006130A4383610262836823F0700343F0B0
:104EB0005703836011E0B3F5805F0ED0B3F5005F58
:104EC0000DD0702BCCD1CB68D1E90121FFF79CFF2D
:104ED0002268936843F0770393600022C0E7CB68B1
:104EE000D1E90121FFF790FF2268936843F48043E2
:104EF000F2E74D68CE68016A21F010010162826913
:104F0000036A22F4704223F0A00343EA051342EA45
:104F1000063282610362836823F0700343F0670303
:104F2000C7E74A68CE68016A056A25F0010505628F
:104F3000836921F00A0123F0F00343EA06130A43D0
:104F400083610262836823F0700343F04703B0E794
:104F50001A468BE7036A01F01F0110B501248C404B
:104F600023EA04030362036A8A401A43026210BD03
:104F700010B5044629B990F83E30012B18D0012015
:104F80002DE004290DD190F83F30013B18BF0123DB
:104F9000002BF4D104294FF0020321D184F83F30D3
:104FA00009E008290CBF90F8403090F84130ECE758
:104FB000022380F83E3020680122FFF7CBFF2368F0
:104FC0001C498B4213D01C4A934210D0B3F1804F3E
:104FD00014D19A6802F00702062A26D1002010BDDB
:104FE00008290CBF84F8403084F84130E3E75A6C5C
:104FF0008B4242F400425A64EBD0E7E70F4A9342F7
:10500000E7D002F580629342E3D002F580629342DA
:10501000DFD002F578429342DBD002F57052934222
:10502000D7D0A2F594329342D3D01A6842F001024D
:105030001A60D3E700000140000401400004004072
:10504000FFF796BF30B590F83C30012B4FF00203CC
:1050500032D080F83D3003680D685C689A6824F0AF
:1050600070042C435C60154CA3421AD0B3F1804FFE
:1050700017D0A4F57C44A34213D004F58064A34266
:105080000FD004F58064A3420BD004F57844A3420A
:1050900007D004F57054A34203D0A4F59434A3427E
:1050A00004D1496822F080020A439A60012380F803
:1050B0003D30002380F83C30184630BD00000140F0
:1050C00090F83C30012B1FD0CB688A6823F44073E2
:1050D00013434A6823F4806313430A6823F400638C
:1050E00013430A6923F4805313434A6923F400539A
:1050F0001343CA6923F480431343026853640023B3
:1051000080F83C301846704702207047026802F170
:105110000C0353E8003F23F490730C3242E8003153
:1051200002680029F2D102F1140353E8003F23F092
:10513000010302F1140C4CE800310029F3D1036B98
:10514000012B0BD102F10C0353E8003F23F01003B5
:1051500002F10C0C4CE800310029F3D1202380F837
:105160003E300023036370470268C168136923F46B
:1051700040530B4370B51361054683680069D168DD
:10518000034368690343E86921F4164121F00C01E7
:1051900003430B43D3605369A96923F440730B4362
:1051A00053611F4B9A4203D003F580639A4223D187
:1051B000FFF754FBEB691921B3F5004FD5E9004621
:1051C000A0FB01011BD1B2194FF000035B41FBF7BB
:1051D000FBFC6421B0FBF1F501FB1503DB0032336E
:1051E000B3FBF1F303F007025B0002EB051203F4DB
:1051F000F8731344A36070BDFFF720FBDAE7B20039
:10520000B30FFBF7E1FC6422B0FBF2F102FB1103E8
:105210001B013233B3FBF2F303EB0113EAE700BFE8
:1052200000100140F8B504460E4617461D46226898
:10523000136836EA030301D1002028E06B1CF7D085
:1052400025B1FEF77DF9C01B8542F0D2226802F13C
:105250000C0353E8003F23F4D0730C3242E80030D3
:1052600021680028F2D101F1140353E8003F23F034
:10527000010301F1140040E80032002AF3D1202399
:1052800084F83D3084F83C2084F83E300320F8BD9B
:1052900010B5044640B390F83D3003F0FF021BB94F
:1052A00080F83C20FEF720F82268242384F83D3063
:1052B000D36823F40053D3602046FFF755FF2368DB
:1052C0001A6922F490421A615A6922F02A025A613C
:1052D000DA6842F40052DA6000202023206484F867
:1052E0003D3084F83E3010BD0120FCE7F7B517468D
:1052F00090F83D200093202A04460E4649D100290B
:1053000045D0002F43D090F83C20012A41D0012203
:1053100080F83C2000252122056480F83D20FEF71E
:105320000FF9A168009BA784B1F5805F0246E7846E
:1053300003D1216909B935460E46002184F83C1095
:10534000E18C89B241B940212046FFF76BFF60B97B
:10535000202384F83D3009E080212046CDE9002358
:10536000FFF760FFDDE9002310B1032003B0F0BDBB
:1053700020684EB935F8021BC1F308014160E18C89
:10538000013989B2E184DBE716F8011BF6E7012059
:10539000ECE70220EAE77047704708B5806B00230E
:1053A000C385C384FFF7F8FF08BD704707B5816860
:1053B000836A0268B1F5805F3ED1016900293ED160
:1053C0005268C2F3080223F8022B8362C38D013BAB
:1053D0009BB2C385002B2CD10268D16821F020013B
:1053E000D160D16821F48071D160516921F001014F
:1053F0005161202280F83E20026B012A026828D1E8
:10540000036302F10C0353E8003F23F0100302F1A1
:105410000C0C4CE800310029F3D11368DB0605D5EC
:1054200001911368019353680193019B818DFFF7EC
:10543000BCFF03B05DF804FB39B9016929B95268B2
:10544000D2B21A70836A0133BFE7526802F07F025A
:10545000F7E7FCF709FAECE7036837B51A68D9688B
:105460005D6912F00F0F04460CD1950670D58D06BC
:105470006ED590F83E30222B64D103B0BDE83040A9
:10548000FFF794BF05F0010001F4907505435FD06C
:10549000D50705D5CB0542BF236C43F00103236438
:1054A000550704D518B1236C43F002032364930716
:1054B00004D518B1236C43F004032364150707D502
:1054C00001F0200303431EBF236C43F00803236451
:1054D000236C002B36D0900608D58A0606D594F8A2
:1054E0003E30222B02D12046FFF760FF23685B6924
:1054F000256C03F0400305F008051D43204623D02A
:10550000FFF704FE226853695B0618D502F1140305
:1055100053E8003F23F0400302F1140040E800315B
:105520000029F3D1A06B50B1724B0365FEF704FA6A
:1055300040B1A06B036D03B0BDE830401847204672
:10554000FFF72AFF03B030BDFFF726FF2564F9E718
:10555000206B012840F09180D50640F18E80C8066E
:1055600040F18B80002201921A6801925A680192E0
:10557000019A5A6955064CD5A16B0A68526892B2D5
:10558000002ADFD0A08D9042DCD9E285CA69B2F54D
:10559000807F36D003F10C0252E8002F22F4807293
:1055A00003F10C0040E800210029F3D103F11402BB
:1055B00052E8002F22F0010203F1140040E800211C
:1055C0000029F3D103F1140252E8002F22F0400227
:1055D00003F1140040E800210029F3D1202284F8CF
:1055E0003E20216303F10C0252E8002F22F010024A
:1055F00003F10C0040E800210029F3D1A06BFEF775
:1056000057F9E38DA18DC91A89B22046FFF7CDFE67
:1056100098E7E18D8AB2E18D89B2002992D0A18DFF
:10562000891A89B200298DD003F10C0252E8002FAB
:1056300022F4907203F10C0545E800200028F3D114
:1056400003F1140252E8002F22F0010203F11405C5
:1056500045E800200028F3D1202284F83E20206372
:1056600003F10C0252E8002F22F0100203F10C05A6
:1056700045E800200028F3D1C7E7100628D50D061D
:1056800026D594F83D20212A7FF45CAFA168226AD8
:10569000B1F5805F17D12169A9B932F8021BC1F3B6
:1056A000080159602262E28C013A92B2E284002A37
:1056B0007FF448AFDA6822F08002DA60DA6842F0FC
:1056C0004002DA603EE7511C216212785A60EAE734
:1056D00050067FF537AF4A067FF534AFDA6822F01F
:1056E0004002DA60202384F83D302046FFF753FE65
:1056F00028E700BF9B530008C28500238285222231
:10570000036480F83E20026980F83C3081620368BF
:105710001AB1DA6842F48072DA605A6942F0010222
:105720005A61DA6842F02002DA600020704770B4F3
:1057300090F83E60202E10D161B15AB190F83C40F3
:10574000012C0AD0012480F83C400024046370BC82
:10575000FFF7D2BF012070BC70470220FBE70000BA
:10576000EFF305832BB9064B186828B901221A609C
:1057700070476FF0050070474FF0FF30704700BF73
:10578000E007002010B5EFF305845CB9084B1A68F8
:10579000012A0AD1074AD47702221A6000F09EFD3E
:1057A000204610BD6FF00500FBE74FF0FF30F8E733
:1057B000E007002000ED00E0F0B587B014460022BD
:1057C0000B460592EFF30582D2B9C8B1002C2FD059
:1057D000A569002D08BF1825691E3729AC462BD8AE
:1057E0006168C90728D466696EB1B208D4E9027E3F
:1057F000216857B1BEF1BB0F02D9246904B1EEB9DB
:10580000059807B0F0BD8022F0E7BEF1000FF7D198
:105810002469002CF4D10C4605A9CDE900C192B24F
:10582000214600F02DFD01281CBF00230593E7E76A
:105830004FF0180C8022EFE71046E2E7CDE9014770
:10584000009500F0E5FC0590DAE710B5EFF305846C
:1058500024B910B100F0AAFE204610BD6FF005007B
:10586000FBE70000034B0360034B0B6080231360D6
:10587000704700BF2407002024050020034B03606D
:10588000034B0B604FF4807313607047E40B0020F0
:10589000E407002000F108034FF0FF32C0E90223C3
:1058A0004360036100230360704700230361704776
:1058B00043684B609A688A609A685160996003688F
:1058C000086101330360704730B50C68631C0AD16E
:1058D00003695A684A6091608B6059600368086187
:1058E0000133036030BD00F10802134652681568A9
:1058F000A542FAD9EDE7D0E9011203698A60516047
:105900005968814208BF5A60002202611A68013A50
:105910001A601868704710B5044601F01BFAA46BB2
:1059200001F038FAB4FA84F0400910BDF8B5154614
:10593000026C866B044652B9076847BB806800F06A
:1059400073FFA76005460136A6632846F8BD65B912
:10595000406801F0D2FE6368226C1344A268636061
:105960009342F0D323686360EDE7C06801F0C5FEA1
:10597000226CE36851429B1A2268E36093423EBF67
:10598000A3685B18E360022D01D116B1013E00252A
:10599000D9E73546D7E7034610B41A6C08466AB112
:1059A000DC68996814448C4228BF1968DC6028BF01
:1059B000D960D9685DF8044B01F09FBE5DF8044BD7
:1059C000704770B5044601F0C5F994F8455004F1EC
:1059D00024066DB2002D14DCFF2384F8453001F05D
:1059E000D9F901F0B7F994F8445004F110066DB2FA
:1059F000002D12DCFF2384F84430BDE8704001F034
:105A0000C9B9636A002BE7D0304600F06BFE08B1DD
:105A100000F0F4FE013D6DB2DCE72369002BE9D014
:105A2000304600F05FFE08B100F0E8FE013D6DB2C7
:105A3000DEE738B50D46044640B94FF0500383F316
:105A40001188BFF36F8FBFF34F8FFEE701F082F92C
:105A5000D4E90F31226862604B43D0185B1A1344BB
:105A6000A060E3600020FF23A06384F8443084F842
:105A70004530A5B9236973B104F1100000F032FE7E
:105A800048B14FF0E0234FF08052C3F8042DBFF32C
:105A90004F8FBFF36F8F01F07DF9012038BD04F106
:105AA0001000FFF7F7FE04F12400FFF7F3FEF2E722
:105AB00013B51C4640B94FF0500383F31188BFF370
:105AC0006F8FBFF34F8FFEE743B94FF0500383F35F
:105AD0001188BFF36F8FBFF34F8FFEE74AB191B9C3
